{
  "contractName": "BoxingBets",
  "abi": [
    {
      "anonymous": false,
      "inputs": [
        {
          "indexed": true,
          "internalType": "address",
          "name": "previousOwner",
          "type": "address"
        },
        {
          "indexed": true,
          "internalType": "address",
          "name": "newOwner",
          "type": "address"
        }
      ],
      "name": "ownershipTransferred",
      "type": "event"
    },
    {
      "constant": true,
      "inputs": [],
      "name": "owner",
      "outputs": [
        {
          "internalType": "address",
          "name": "",
          "type": "address"
        }
      ],
      "payable": false,
      "stateMutability": "view",
      "type": "function"
    },
    {
      "constant": false,
      "inputs": [
        {
          "internalType": "address",
          "name": "newOwner",
          "type": "address"
        }
      ],
      "name": "transferOwnership",
      "outputs": [],
      "payable": false,
      "stateMutability": "nonpayable",
      "type": "function"
    },
    {
      "constant": true,
      "inputs": [],
      "name": "getBettableMatches",
      "outputs": [
        {
          "internalType": "bytes32[]",
          "name": "",
          "type": "bytes32[]"
        }
      ],
      "payable": false,
      "stateMutability": "view",
      "type": "function"
    },
    {
      "constant": false,
      "inputs": [
        {
          "internalType": "bytes32",
          "name": "_matchId",
          "type": "bytes32"
        },
        {
          "internalType": "uint8",
          "name": "_chosenWinner",
          "type": "uint8"
        }
      ],
      "name": "placeBet",
      "outputs": [],
      "payable": true,
      "stateMutability": "payable",
      "type": "function"
    },
    {
      "constant": true,
      "inputs": [
        {
          "internalType": "uint256",
          "name": "a",
          "type": "uint256"
        },
        {
          "internalType": "uint256",
          "name": "b",
          "type": "uint256"
        }
      ],
      "name": "test",
      "outputs": [
        {
          "internalType": "uint256",
          "name": "",
          "type": "uint256"
        }
      ],
      "payable": false,
      "stateMutability": "pure",
      "type": "function"
    },
    {
      "constant": false,
      "inputs": [
        {
          "internalType": "address",
          "name": "_oracleAddress",
          "type": "address"
        }
      ],
      "name": "setOracleAddress",
      "outputs": [
        {
          "internalType": "bool",
          "name": "",
          "type": "bool"
        }
      ],
      "payable": false,
      "stateMutability": "nonpayable",
      "type": "function"
    },
    {
      "constant": true,
      "inputs": [],
      "name": "getOracleAddress",
      "outputs": [
        {
          "internalType": "address",
          "name": "",
          "type": "address"
        }
      ],
      "payable": false,
      "stateMutability": "view",
      "type": "function"
    }
  ],
  "bytecode": "0x6080604052600360009054906101000a900473ffffffffffffffffffffffffffffffffffffffff16600460006101000a81548173ffffffffffffffffffffffffffffffffffffffff021916908373ffffffffffffffffffffffffffffffffffffffff16021790555064e8d4a51000600555336000806101000a81548173ffffffffffffffffffffffffffffffffffffffff021916908373ffffffffffffffffffffffffffffffffffffffff160217905550610bcb806100bf6000396000f3fe6080604052600436106100705760003560e01c80638da5cb5b1161004e5780638da5cb5b14610185578063b18b78dd146101dc578063eb8ac92114610233578063f2fde38b1461028c57610070565b80630e52bb49146100755780633397741b146100b05780634c69c00f1461011c575b600080fd5b6100ae6004803603604081101561008b57600080fd5b8101908080359060200190929190803560ff1690602001909291905050506102dd565b005b3480156100bc57600080fd5b506100c56106c3565b6040518080602001828103825283818151815260200191508051906020019060200280838360005b838110156101085780820151818401526020810190506100ed565b505050509050019250505060405180910390f35b34801561012857600080fd5b5061016b6004803603602081101561013f57600080fd5b81019080803573ffffffffffffffffffffffffffffffffffffffff169060200190929190505050610807565b604051808215151515815260200191505060405180910390f35b34801561019157600080fd5b5061019a6109b0565b604051808273ffffffffffffffffffffffffffffffffffffffff1673ffffffffffffffffffffffffffffffffffffffff16815260200191505060405180910390f35b3480156101e857600080fd5b506101f16109d5565b604051808273ffffffffffffffffffffffffffffffffffffffff1673ffffffffffffffffffffffffffffffffffffffff16815260200191505060405180910390f35b34801561023f57600080fd5b506102766004803603604081101561025657600080fd5b8101908080359060200190929190803590602001909291905050506109ff565b6040518082815260200191505060405180910390f35b34801561029857600080fd5b506102db600480360360208110156102af57600080fd5b81019080803573ffffffffffffffffffffffffffffffffffffffff169060200190929190505050610a0c565b005b600554341015610338576040517f08c379a0000000000000000000000000000000000000000000000000000000008152600401808060200182810382526021815260200180610b766021913960400191505060405180910390fd5b600460009054906101000a900473ffffffffffffffffffffffffffffffffffffffff1673ffffffffffffffffffffffffffffffffffffffff1663a9345240836040518263ffffffff1660e01b81526004018082815260200191505060206040518083038186803b1580156103ab57600080fd5b505afa1580156103bf573d6000803e3d6000fd5b505050506040513d60208110156103d557600080fd5b8101908080519060200190929190505050610458576040517f08c379a00000000000000000000000000000000000000000000000000000000081526004018080602001828103825260198152602001807f737065636966696564206d61746368206e6f7420666f756e640000000000000081525060200191505060405180910390fd5b610463338383610b5d565b6104d5576040517f08c379a00000000000000000000000000000000000000000000000000000000081526004018080602001828103825260108152602001807f426574206973206e6f742076616c69640000000000000000000000000000000081525060200191505060405180910390fd5b6104de82610b6a565b610550576040517f08c379a000000000000000000000000000000000000000000000000000000000815260040180806020018281038252601a8152602001807f4d61746368206e6f74206f70656e20666f722062657474696e6700000000000081525060200191505060405180910390fd5b600060026000848152602001908152602001600020905060018160405180608001604052803373ffffffffffffffffffffffffffffffffffffffff1681526020018681526020013481526020018560ff168152509080600181540180825580915050906001820390600052602060002090600402016000909192909190915060008201518160000160006101000a81548173ffffffffffffffffffffffffffffffffffffffff021916908373ffffffffffffffffffffffffffffffffffffffff160217905550602082015181600101556040820151816002015560608201518160030160006101000a81548160ff021916908360ff160217905550505050506000600160003373ffffffffffffffffffffffffffffffffffffffff1673ffffffffffffffffffffffffffffffffffffffff16815260200190815260200160002090508084908060018154018082558091505090600182039060005260206000200160009091929091909150555050505050565b6060600460009054906101000a900473ffffffffffffffffffffffffffffffffffffffff1673ffffffffffffffffffffffffffffffffffffffff16635f29d4b16040518163ffffffff1660e01b815260040160006040518083038186803b15801561072d57600080fd5b505afa158015610741573d6000803e3d6000fd5b505050506040513d6000823e3d601f19601f82011682018060405250602081101561076b57600080fd5b810190808051604051939291908464010000000082111561078b57600080fd5b838201915060208201858111156107a157600080fd5b82518660208202830111640100000000821117156107be57600080fd5b8083526020830192505050908051906020019060200280838360005b838110156107f55780820151818401526020810190506107da565b50505050905001604052505050905090565b60008060009054906101000a900473ffffffffffffffffffffffffffffffffffffffff1673ffffffffffffffffffffffffffffffffffffffff163373ffffffffffffffffffffffffffffffffffffffff161461086257600080fd5b81600360006101000a81548173ffffffffffffffffffffffffffffffffffffffff021916908373ffffffffffffffffffffffffffffffffffffffff160217905550600360009054906101000a900473ffffffffffffffffffffffffffffffffffffffff16600460006101000a81548173ffffffffffffffffffffffffffffffffffffffff021916908373ffffffffffffffffffffffffffffffffffffffff160217905550600460009054906101000a900473ffffffffffffffffffffffffffffffffffffffff1673ffffffffffffffffffffffffffffffffffffffff16633412a15c6040518163ffffffff1660e01b815260040160206040518083038186803b15801561096e57600080fd5b505afa158015610982573d6000803e3d6000fd5b505050506040513d602081101561099857600080fd5b81019080805190602001909291905050509050919050565b6000809054906101000a900473ffffffffffffffffffffffffffffffffffffffff1681565b6000600360009054906101000a900473ffffffffffffffffffffffffffffffffffffffff16905090565b6000818301905092915050565b6000809054906101000a900473ffffffffffffffffffffffffffffffffffffffff1673ffffffffffffffffffffffffffffffffffffffff163373ffffffffffffffffffffffffffffffffffffffff1614610a6557600080fd5b600073ffffffffffffffffffffffffffffffffffffffff168173ffffffffffffffffffffffffffffffffffffffff161415610a9f57600080fd5b8073ffffffffffffffffffffffffffffffffffffffff166000809054906101000a900473ffffffffffffffffffffffffffffffffffffffff1673ffffffffffffffffffffffffffffffffffffffff167f7699c77f2404f9b6bbd003861bb4af8ae70b205e19e73d7ec7fe4590db59a6b760405160405180910390a3806000806101000a81548173ffffffffffffffffffffffffffffffffffffffff021916908373ffffffffffffffffffffffffffffffffffffffff16021790555050565b6000600190509392505050565b60006001905091905056fe42657420616d6f756e74206d757374206265203e3d206d696e696d756d20626574a265627a7a72315820478bcc895500cccec83709c79b8dc020be83ce5eec96fe09e51d69689d8c620d64736f6c63430005100032",
  "source": "// SPDX-License-Identifier: MIT\npragma solidity >=0.4.22 <0.9.0;\n\nimport \"./OracleInterface.sol\";\nimport \"./Ownable.sol\";\n\ncontract BoxingBets is Ownable {\n    //mapping\n    mapping(address => bytes32[]) private userToBets;\n    mapping(bytes32 => Bet[]) private matchToBets;\n\n    //boxing results oracle\n    address internal boxingOracleAddr;\n    OracleInterface internal boxingOracle = OracleInterface(boxingOracleAddr);\n\n    //constants\n    uint256 internal minimumBet = 1000000000000;\n\n    struct Bet {\n        address user;\n        bytes32 matchId;\n        uint256 amount;\n        uint8 choseWinner;\n    }\n\n    enum BettableOutcome {Fighter1, Fighter2}\n\n    function _betIsValid(\n        address _user,\n        bytes32 _matchId,\n        uint8 _choseWinner\n    ) private view returns (bool) {\n        return true;\n    }\n\n    function _matchOpenForBetting(bytes32 _matchId)\n        private\n        view\n        returns (bool)\n    {\n        return true;\n    }\n\n    function getBettableMatches() public view returns (bytes32[] memory) {\n        return boxingOracle.getPendingMatches();\n    }\n\n    function placeBet(bytes32 _matchId, uint8 _chosenWinner) public payable {\n        //bet must be above a certain minimum\n        require(msg.value >= minimumBet, \"Bet amount must be >= minimum bet\");\n\n        //make sure that match exists\n        require(\n            boxingOracle.matchExists(_matchId),\n            \"specified match not found\"\n        );\n\n        //require that chosen winner falls within the defined number of participants for match\n        require(\n            _betIsValid(msg.sender, _matchId, _chosenWinner),\n            \"Bet is not valid\"\n        );\n\n        //match must still be open for betting\n        require(_matchOpenForBetting(_matchId), \"Match not open for betting\");\n\n        //transfer the money into the account\n        //address(this).transfer(msg.value);\n\n        //add the new bet\n        Bet[] storage bets = matchToBets[_matchId];\n        bets.push(Bet(msg.sender, _matchId, msg.value, _chosenWinner))-1;\n\n        //add the mapping\n        bytes32[] storage userBets = userToBets[msg.sender];\n        userBets.push(_matchId);\n    }\n\n    function test(uint256 a, uint256 b) public pure returns (uint256) {\n        return (a + b);\n    }\n\n    function setOracleAddress(address _oracleAddress) external onlyOwner returns (bool) {\n        boxingOracleAddr = _oracleAddress;\n        boxingOracle = OracleInterface(boxingOracleAddr);\n        return boxingOracle.testConnection();\n    }\n\n    function getOracleAddress() external view returns (address) {\n        return boxingOracleAddr;\n    }\n}\n",
  "sourcePath": "/Users/aoikurokawa/Documents/Blockchain/Ethereum/oracle_example/client/contracts/BoxingBets.sol",
  "compiler": {
    "name": "solc",
    "version": "0.5.16+commit.9c3226ce.Emscripten.clang"
  },
  "schemaVersion": "3.3.4",
  "updatedAt": "2021-02-27T00:49:45.251Z",
  "networkType": "ethereum",
  "devdoc": {
    "methods": {}
  },
  "userdoc": {
    "methods": {}
  }
}