{
  "contractName": "BoxingOracle",
  "abi": [
    {
      "anonymous": false,
      "inputs": [
        {
          "indexed": true,
          "internalType": "address",
          "name": "previousOwner",
          "type": "address"
        },
        {
          "indexed": true,
          "internalType": "address",
          "name": "newOwner",
          "type": "address"
        }
      ],
      "name": "OwnershipTransferred",
      "type": "event"
    },
    {
      "constant": true,
      "inputs": [],
      "name": "owner",
      "outputs": [
        {
          "internalType": "address",
          "name": "",
          "type": "address"
        }
      ],
      "payable": false,
      "stateMutability": "view",
      "type": "function"
    },
    {
      "constant": false,
      "inputs": [
        {
          "internalType": "address",
          "name": "newOwner",
          "type": "address"
        }
      ],
      "name": "transferOwnership",
      "outputs": [],
      "payable": false,
      "stateMutability": "nonpayable",
      "type": "function"
    },
    {
      "constant": true,
      "inputs": [
        {
          "internalType": "bytes32",
          "name": "_matchId",
          "type": "bytes32"
        }
      ],
      "name": "matchExists",
      "outputs": [
        {
          "internalType": "bool",
          "name": "",
          "type": "bool"
        }
      ],
      "payable": false,
      "stateMutability": "view",
      "type": "function"
    },
    {
      "constant": false,
      "inputs": [
        {
          "internalType": "string",
          "name": "_name",
          "type": "string"
        },
        {
          "internalType": "string",
          "name": "_participants",
          "type": "string"
        },
        {
          "internalType": "uint8",
          "name": "_participantCount",
          "type": "uint8"
        },
        {
          "internalType": "uint256",
          "name": "_date",
          "type": "uint256"
        }
      ],
      "name": "addMatch",
      "outputs": [
        {
          "internalType": "bytes32",
          "name": "",
          "type": "bytes32"
        }
      ],
      "payable": false,
      "stateMutability": "nonpayable",
      "type": "function"
    },
    {
      "constant": false,
      "inputs": [
        {
          "internalType": "bytes32",
          "name": "_matchId",
          "type": "bytes32"
        },
        {
          "internalType": "enum BoxingOracle.MatchOutcome",
          "name": "_outcome",
          "type": "uint8"
        },
        {
          "internalType": "int8",
          "name": "_winner",
          "type": "int8"
        }
      ],
      "name": "declareOutcome",
      "outputs": [],
      "payable": false,
      "stateMutability": "nonpayable",
      "type": "function"
    },
    {
      "constant": true,
      "inputs": [],
      "name": "getPendingMatches",
      "outputs": [
        {
          "internalType": "bytes32[]",
          "name": "",
          "type": "bytes32[]"
        }
      ],
      "payable": false,
      "stateMutability": "view",
      "type": "function"
    },
    {
      "constant": true,
      "inputs": [],
      "name": "getAllMatches",
      "outputs": [
        {
          "internalType": "bytes32[]",
          "name": "",
          "type": "bytes32[]"
        }
      ],
      "payable": false,
      "stateMutability": "view",
      "type": "function"
    },
    {
      "constant": true,
      "inputs": [
        {
          "internalType": "bytes32",
          "name": "_matchId",
          "type": "bytes32"
        }
      ],
      "name": "getMatch",
      "outputs": [
        {
          "internalType": "bytes32",
          "name": "id",
          "type": "bytes32"
        },
        {
          "internalType": "string",
          "name": "name",
          "type": "string"
        },
        {
          "internalType": "string",
          "name": "participants",
          "type": "string"
        },
        {
          "internalType": "uint8",
          "name": "participantCount",
          "type": "uint8"
        },
        {
          "internalType": "uint256",
          "name": "date",
          "type": "uint256"
        },
        {
          "internalType": "enum BoxingOracle.MatchOutcome",
          "name": "outcome",
          "type": "uint8"
        },
        {
          "internalType": "int8",
          "name": "winner",
          "type": "int8"
        }
      ],
      "payable": false,
      "stateMutability": "view",
      "type": "function"
    },
    {
      "constant": true,
      "inputs": [
        {
          "internalType": "bool",
          "name": "_pending",
          "type": "bool"
        }
      ],
      "name": "getMostRecentMatch",
      "outputs": [
        {
          "internalType": "bytes32",
          "name": "id",
          "type": "bytes32"
        },
        {
          "internalType": "string",
          "name": "name",
          "type": "string"
        },
        {
          "internalType": "string",
          "name": "participants",
          "type": "string"
        },
        {
          "internalType": "uint8",
          "name": "participantCount",
          "type": "uint8"
        },
        {
          "internalType": "uint256",
          "name": "date",
          "type": "uint256"
        },
        {
          "internalType": "enum BoxingOracle.MatchOutcome",
          "name": "outcome",
          "type": "uint8"
        },
        {
          "internalType": "int8",
          "name": "winner",
          "type": "int8"
        }
      ],
      "payable": false,
      "stateMutability": "view",
      "type": "function"
    },
    {
      "constant": true,
      "inputs": [],
      "name": "testConnection",
      "outputs": [
        {
          "internalType": "bool",
          "name": "",
          "type": "bool"
        }
      ],
      "payable": false,
      "stateMutability": "pure",
      "type": "function"
    },
    {
      "constant": true,
      "inputs": [],
      "name": "getAddress",
      "outputs": [
        {
          "internalType": "address",
          "name": "",
          "type": "address"
        }
      ],
      "payable": false,
      "stateMutability": "view",
      "type": "function"
    },
    {
      "constant": false,
      "inputs": [],
      "name": "addTestData",
      "outputs": [],
      "payable": false,
      "stateMutability": "nonpayable",
      "type": "function"
    }
  ],
  "bytecode": "0x6080604052336000806101000a81548173ffffffffffffffffffffffffffffffffffffffff021916908373ffffffffffffffffffffffffffffffffffffffff160217905550611e6c806100536000396000f3fe608060405234801561001057600080fd5b50600436106100b45760003560e01c8063a212b45411610071578063a212b45414610393578063a93452401461039d578063bb2b0f58146103e3578063c17c5a4514610535578063f2fde38b14610594578063fcc6077d146105d8576100b4565b80633412a15c146100b957806338cc4831146100db5780635f29d4b1146101255780637898d334146101845780638da5cb5b146101cc578063a1d2d31414610216575b600080fd5b6100c1610728565b604051808215151515815260200191505060405180910390f35b6100e3610731565b604051808273ffffffffffffffffffffffffffffffffffffffff1673ffffffffffffffffffffffffffffffffffffffff16815260200191505060405180910390f35b61012d6107b9565b6040518080602001828103825283818151815260200191508051906020019060200280838360005b83811015610170578082015181840152602081019050610155565b505050509050019250505060405180910390f35b6101ca6004803603606081101561019a57600080fd5b8101908080359060200190929190803560ff169060200190929190803560000b906020019092919050505061092f565b005b6101d4610a83565b604051808273ffffffffffffffffffffffffffffffffffffffff1673ffffffffffffffffffffffffffffffffffffffff16815260200191505060405180910390f35b61037d6004803603608081101561022c57600080fd5b810190808035906020019064010000000081111561024957600080fd5b82018360208201111561025b57600080fd5b8035906020019184600183028401116401000000008311171561027d57600080fd5b91908080601f016020809104026020016040519081016040528093929190818152602001838380828437600081840152601f19601f820116905080830192505050505050509192919290803590602001906401000000008111156102e057600080fd5b8201836020820111156102f257600080fd5b8035906020019184600183028401116401000000008311171561031457600080fd5b91908080601f016020809104026020016040519081016040528093929190818152602001838380828437600081840152601f19601f820116905080830192505050505050509192919290803560ff16906020019092919080359060200190929190505050610aa8565b6040518082815260200191505060405180910390f35b61039b610d23565b005b6103c9600480360360208110156103b357600080fd5b8101908080359060200190929190505050611531565b604051808215151515815260200191505060405180910390f35b610411600480360360208110156103f957600080fd5b8101908080351515906020019092919050505061156e565b6040518088815260200180602001806020018760ff1660ff16815260200186815260200185600381111561044157fe5b60ff1681526020018460000b60000b8152602001838103835289818151815260200191508051906020019080838360005b8381101561048d578082015181840152602081019050610472565b50505050905090810190601f1680156104ba5780820380516001836020036101000a031916815260200191505b50838103825288818151815260200191508051906020019080838360005b838110156104f35780820151818401526020810190506104d8565b50505050905090810190601f1680156105205780820380516001836020036101000a031916815260200191505b50995050505050505050505060405180910390f35b61053d6115e9565b6040518080602001828103825283818151815260200191508051906020019060200280838360005b83811015610580578082015181840152602081019050610565565b505050509050019250505060405180910390f35b6105d6600480360360208110156105aa57600080fd5b81019080803573ffffffffffffffffffffffffffffffffffffffff1690602001909291905050506116a1565b005b610604600480360360208110156105ee57600080fd5b81019080803590602001909291905050506117f2565b6040518088815260200180602001806020018760ff1660ff16815260200186815260200185600381111561063457fe5b60ff1681526020018460000b60000b8152602001838103835289818151815260200191508051906020019080838360005b83811015610680578082015181840152602081019050610665565b50505050905090810190601f1680156106ad5780820380516001836020036101000a031916815260200191505b50838103825288818151815260200191508051906020019080838360005b838110156106e65780820151818401526020810190506106cb565b50505050905090810190601f1680156107135780820380516001836020036101000a031916815260200191505b50995050505050505050505060405180910390f35b60006001905090565b60003073ffffffffffffffffffffffffffffffffffffffff166338cc48316040518163ffffffff1660e01b815260040160206040518083038186803b15801561077957600080fd5b505afa15801561078d573d6000803e3d6000fd5b505050506040513d60208110156107a357600080fd5b8101908080519060200190929190505050905090565b6060600080905060008090505b60018054905081101561083357600060038111156107e057fe5b600182815481106107ed57fe5b906000526020600020906006020160050160009054906101000a900460ff16600381111561081757fe5b14156108265781806001019250505b80806001019150506107c6565b506060816040519080825280602002602001820160405280156108655781602001602082028038833980820191505090505b5090506000821115610927576000809050600060018054905090505b6000811115610924576000600381111561089757fe5b6001808303815481106108a657fe5b906000526020600020906006020160050160009054906101000a900460ff1660038111156108d057fe5b1415610916576001808203815481106108e557fe5b90600052602060002090600602016000015483838060010194508151811061090957fe5b6020026020010181815250505b808060019003915050610881565b50505b809250505090565b6000809054906101000a900473ffffffffffffffffffffffffffffffffffffffff1673ffffffffffffffffffffffffffffffffffffffff163373ffffffffffffffffffffffffffffffffffffffff161461098857600080fd5b61099183611531565b61099a57600080fd5b60006109a584611a38565b90506000600182815481106109b657fe5b906000526020600020906006020190506003808111156109d257fe5b8460038111156109de57fe5b1415610a185760008360000b12158015610a0e57508260ff168160030160009054906101000a900460ff1660ff16115b610a1757600080fd5b5b838160050160006101000a81548160ff02191690836003811115610a3857fe5b0217905550600380811115610a4957fe5b846003811115610a5557fe5b1415610a7c57828160050160016101000a81548160ff021916908360000b60ff1602179055505b5050505050565b6000809054906101000a900473ffffffffffffffffffffffffffffffffffffffff1681565b60008060009054906101000a900473ffffffffffffffffffffffffffffffffffffffff1673ffffffffffffffffffffffffffffffffffffffff163373ffffffffffffffffffffffffffffffffffffffff1614610b0357600080fd5b60008584846040516020018084805190602001908083835b60208310610b3e5780518252602082019150602081019050602083039250610b1b565b6001836020036101000a0380198251168184511680821785525050505050509050018360ff1660ff1660f81b81526001018281526020019350505050604051602081830303815290604052805190602001209050610b9b81611531565b15610ba557600080fd5b60006001806040518060e001604052808581526020018a81526020018981526020018860ff16815260200187815260200160006003811115610be357fe5b81526020017fffffffffffffffffffffffffffffffffffffffffffffffffffffffffffffffff60000b81525090806001815401808255809150509060018203906000526020600020906006020160009091929091909150600082015181600001556020820151816001019080519060200190610c60929190611d6f565b506040820151816002019080519060200190610c7d929190611d6f565b5060608201518160030160006101000a81548160ff021916908360ff1602179055506080820151816004015560a08201518160050160006101000a81548160ff02191690836003811115610ccd57fe5b021790555060c08201518160050160016101000a81548160ff021916908360000b60ff16021790555050500390506001810160026000848152602001908152602001600020819055508192505050949350505050565b6000809054906101000a900473ffffffffffffffffffffffffffffffffffffffff1673ffffffffffffffffffffffffffffffffffffffff163373ffffffffffffffffffffffffffffffffffffffff1614610d7c57600080fd5b610e566040518060400160405280601781526020017f506163717569616f2076732e204d6179576561746865720000000000000000008152506040518060400160405280601381526020017f506163717569616f7c4d617977656174686572000000000000000000000000008152506002610e516040518061010001604052806107e261ffff168152602001600860ff168152602001600d60ff168152602001600060ff168152602001600060ff168152602001600060ff168152602001600060ff168152602001600060ff16815250611a58565b610aa8565b50610f316040518060400160405280601781526020017f4d6163717569616f2076732e20506179776561746865720000000000000000008152506040518060400160405280601381526020017f4d6163717569616f7c50617977656174686572000000000000000000000000008152506002610f2c6040518061010001604052806107e261ffff168152602001600860ff168152602001600f60ff168152602001600060ff168152602001600060ff168152602001600060ff168152602001600060ff168152602001600060ff16815250611a58565b610aa8565b5061100c6040518060400160405280601881526020017f506163776561746865722076732e204d616361727468757200000000000000008152506040518060400160405280601481526020017f506163776561746865727c4d616361727468757200000000000000000000000081525060026110076040518061010001604052806107e261ffff168152602001600960ff168152602001600360ff168152602001600060ff168152602001600060ff168152602001600060ff168152602001600060ff168152602001600060ff16815250611a58565b610aa8565b506110e76040518060400160405280601481526020017f4d61636172746875722076732e205472756d616e0000000000000000000000008152506040518060400160405280601081526020017f4d61636172746875727c5472756d616e0000000000000000000000000000000081525060026110e26040518061010001604052806107e261ffff168152602001600960ff168152602001600360ff168152602001600060ff168152602001600060ff168152602001600060ff168152602001600060ff168152602001600060ff16815250611a58565b610aa8565b506111c26040518060400160405280601481526020017f4d6163617175652076732e2050726567756e746f0000000000000000000000008152506040518060400160405280601081526020017f4d6163617175657c50726567756e746f0000000000000000000000000000000081525060026111bd6040518061010001604052806107e261ffff168152602001600960ff168152602001601560ff168152602001600060ff168152602001600060ff168152602001600060ff168152602001600060ff168152602001600060ff16815250611a58565b610aa8565b5061129d6040518060400160405280601781526020017f46617273776f7274682076732e205765726e7374726f6d0000000000000000008152506040518060400160405280601381526020017f46617273776f7274687c5765726e7374726f6d0000000000000000000000000081525060026112986040518061010001604052806107e261ffff168152602001600960ff168152602001601d60ff168152602001600060ff168152602001600060ff168152602001600060ff168152602001600060ff168152602001600060ff16815250611a58565b610aa8565b506113786040518060400160405280601581526020017f466f7274696e627261732076732e2048616d6c657400000000000000000000008152506040518060400160405280601181526020017f466f7274696e627261737c48616d6c657400000000000000000000000000000081525060026113736040518061010001604052806107e261ffff168152602001600a60ff168152602001600a60ff168152602001600060ff168152602001600060ff168152602001600060ff168152602001600060ff168152602001600060ff16815250611a58565b610aa8565b506114536040518060400160405280601581526020017f466f6f6c69636c652076732e2050726574656e646f00000000000000000000008152506040518060400160405280601181526020017f466f6f6c69636c657c50726574656e646f000000000000000000000000000000815250600261144e6040518061010001604052806107e261ffff168152602001600b60ff168152602001600b60ff168152602001600060ff168152602001600060ff168152602001600060ff168152602001600060ff168152602001600060ff16815250611a58565b610aa8565b5061152e6040518060400160405280601581526020017f506172746869616e2076732e20536379746869616e00000000000000000000008152506040518060400160405280601181526020017f506172746869616e7c536379746869616e00000000000000000000000000000081525060026115296040518061010001604052806107e261ffff168152602001600b60ff168152602001600c60ff168152602001600060ff168152602001600060ff168152602001600060ff168152602001600060ff168152602001600060ff16815250611a58565b610aa8565b50565b60008060018054905014156115495760009050611569565b600060026000848152602001908152602001600020549050600081119150505b919050565b600060608060008060008060008060001b905060608915611598576115916107b9565b90506115a3565b6115a06115e9565b90505b6000815111156115c557806000815181106115ba57fe5b602002602001015191505b6115ce826117f2565b98509850985098509850985098505050919395979092949650565b6060806001805490506040519080825280602002602001820160405280156116205781602001602082028038833980820191505090505b5090506000600180549050111561169a576000809050600060018054905090505b60008111156116975760018082038154811061165957fe5b90600052602060002090600602016000015483838060010194508151811061167d57fe5b602002602001018181525050808060019003915050611641565b50505b8091505090565b6000809054906101000a900473ffffffffffffffffffffffffffffffffffffffff1673ffffffffffffffffffffffffffffffffffffffff163373ffffffffffffffffffffffffffffffffffffffff16146116fa57600080fd5b600073ffffffffffffffffffffffffffffffffffffffff168173ffffffffffffffffffffffffffffffffffffffff16141561173457600080fd5b8073ffffffffffffffffffffffffffffffffffffffff166000809054906101000a900473ffffffffffffffffffffffffffffffffffffffff1673ffffffffffffffffffffffffffffffffffffffff167f8be0079c531659141344cd1fd0a4f28419497f9722a3daafe3b4186f6b6457e060405160405180910390a3806000806101000a81548173ffffffffffffffffffffffffffffffffffffffff021916908373ffffffffffffffffffffffffffffffffffffffff16021790555050565b600060608060008060008061180688611531565b156119c657600060016118188a611a38565b8154811061182257fe5b90600052602060002090600602019050806000015481600101826002018360030160009054906101000a900460ff1684600401548560050160009054906101000a900460ff168660050160019054906101000a900460000b858054600181600116156101000203166002900480601f01602080910402602001604051908101604052809291908181526020018280546001816001161561010002031660029004801561190f5780601f106118e45761010080835404028352916020019161190f565b820191906000526020600020905b8154815290600101906020018083116118f257829003601f168201915b50505050509550848054600181600116156101000203166002900480601f0160208091040260200160405190810160405280929190818152602001828054600181600116156101000203166002900480156119ab5780601f10611980576101008083540402835291602001916119ab565b820191906000526020600020905b81548152906001019060200180831161198e57829003601f168201915b50505050509450975097509750975097509750975050611a2d565b8760008060007fffffffffffffffffffffffffffffffffffffffffffffffffffffffffffffffff6040518060200160405280600081525093929190604051806020016040528060008152509392919083935082925080905096509650965096509650965096505b919395979092949650565b600060016002600084815260200190815260200160002054039050919050565b6000806107b290505b826000015161ffff168161ffff161015611aa857611a7e81611cfa565b15611a91576301e2850082019150611a9b565b6301e13380820191505b8080600101915050611a61565b611ab0611def565b601f816000600c8110611abf57fe5b602002019060ff16908160ff1681525050611add8460000151611cfa565b15611b0757601d816001600c8110611af157fe5b602002019060ff16908160ff1681525050611b28565b601c816001600c8110611b1657fe5b602002019060ff16908160ff16815250505b601f816002600c8110611b3757fe5b602002019060ff16908160ff1681525050601e816003600c8110611b5757fe5b602002019060ff16908160ff1681525050601f816004600c8110611b7757fe5b602002019060ff16908160ff1681525050601e816005600c8110611b9757fe5b602002019060ff16908160ff1681525050601f816006600c8110611bb757fe5b602002019060ff16908160ff1681525050601f816007600c8110611bd757fe5b602002019060ff16908160ff1681525050601e816008600c8110611bf757fe5b602002019060ff16908160ff1681525050601f816009600c8110611c1757fe5b602002019060ff16908160ff1681525050601e81600a600c8110611c3757fe5b602002019060ff16908160ff1681525050601f81600b600c8110611c5757fe5b602002019060ff16908160ff1681525050600191505b836020015160ff168261ffff161015611cb157806001830361ffff16600c8110611c9357fe5b602002015160ff166201518002830192508180600101925050611c6d565b600184604001510360ff16620151800283019250836060015160ff16610e100283019250836080015160ff16603c02830192508360a0015160ff16830192508292505050919050565b60008060048361ffff1681611d0b57fe5b0661ffff1614611d1e5760009050611d6a565b600060648361ffff1681611d2e57fe5b0661ffff1614611d415760019050611d6a565b60006101908361ffff1681611d5257fe5b0661ffff1614611d655760009050611d6a565b600190505b919050565b828054600181600116156101000203166002900490600052602060002090601f016020900481019282601f10611db057805160ff1916838001178555611dde565b82800160010185558215611dde579182015b82811115611ddd578251825591602001919060010190611dc2565b5b509050611deb9190611e12565b5090565b604051806101800160405280600c90602082028038833980820191505090505090565b611e3491905b80821115611e30576000816000905550600101611e18565b5090565b9056fea265627a7a72315820b2544b1e2d359686ca9ced692d01d0b1e7803857fb4291df7c89e01e2c572c7a64736f6c63430005100032",
  "source": "// SPDX-License-Identifier: MIT\npragma solidity >=0.4.22 <0.9.0;\n\nimport \"./Ownable.sol\";\nimport \"./DateLib.sol\";\n\n/*\nTEST: \n- testConnection \n- getAddress\n- matchExists(0) \n- matchExists(1)\n- declareOutcome(0, 2)\n- getPendingMatches()\n- getAllMatches()\n- getMatch(0)\n- getMostRecentMatch(true)\n- addTestData()\n- matchExists(0) \n- matchExists(1)\n- declareOutcome(0, 2)\n- getPendingMatches()               \n- getAllMatches()                   \n- getMatch(0)\n- getMostRecentMatch(true)\n- getMostRecentMatch(false) \n- getMatch(0x...)                   \n- declareOutcome(0x..., 2)              \n- getMostRecentMatch(true)\n- getMostRecentMatch(false)\n- getMatch(0x...)              \n- add duplicate match      \n*/\n\n/// @title BoxingOracle\n/// @author John R. Kosinski\n/// @notice Collects and provides information on boxing matches and their outcomes \ncontract BoxingOracle is Ownable {\n    Match[] matches; \n    mapping(bytes32 => uint) matchIdToIndex; \n\n    using DateLib for DateLib.DateTime;\n\n\n    //defines a match along with its outcome\n    struct Match {\n        bytes32 id;\n        string name;\n        string participants;\n        uint8 participantCount;\n        uint date; \n        MatchOutcome outcome;\n        int8 winner;\n    }\n\n    //possible match outcomes \n    enum MatchOutcome {\n        Pending,    //match has not been fought to decision\n        Underway,   //match has started & is underway\n        Draw,       //anything other than a clear winner (e.g. cancelled)\n        Decided     //index of participant who is the winner \n    }\n\n    function _getMatchIndex(bytes32 _matchId) private view returns (uint) {\n        return matchIdToIndex[_matchId]-1; \n    }\n\n    function matchExists(bytes32 _matchId) public view returns (bool) {\n        if (matches.length == 0)\n            return false;\n        uint index = matchIdToIndex[_matchId]; \n        return (index > 0); \n    }\n\n    function addMatch(string memory _name, string memory _participants, uint8 _participantCount, uint _date) onlyOwner public returns (bytes32) {\n\n        //hash the crucial info to get a unique id \n        bytes32 id = keccak256(abi.encodePacked(_name, _participantCount, _date)); \n\n        //require that the match be unique (not already added) \n        require(!matchExists(id));\n        \n        //add the match \n        uint newIndex = matches.push(Match(id, _name, _participants, _participantCount, _date, MatchOutcome.Pending, -1)) -1; \n        matchIdToIndex[id] = newIndex+1;\n        \n        //return the unique id of the new match\n        return id;\n    }\n\n    function declareOutcome(bytes32 _matchId, MatchOutcome _outcome, int8 _winner) onlyOwner external {\n\n        //require that it exists\n        require(matchExists(_matchId)); \n\n        //get the match \n        uint index = _getMatchIndex(_matchId);\n        Match storage theMatch = matches[index]; \n\n        if (_outcome == MatchOutcome.Decided) \n            require(_winner >= 0 && theMatch.participantCount > uint8(_winner)); \n\n        //set the outcome \n        theMatch.outcome = _outcome;\n        \n        //set the winner (if there is one)\n        if (_outcome == MatchOutcome.Decided) \n            theMatch.winner = _winner;\n    }\n\n    function getPendingMatches() public view returns (bytes32[] memory) {\n        uint count = 0; \n\n        //get count of pending matches \n        for (uint i = 0; i < matches.length; i++) {\n            if (matches[i].outcome == MatchOutcome.Pending) \n                count++; \n        }\n\n        //collect up all the pending matches\n        bytes32[] memory output = new bytes32[](count); \n\n        if (count > 0) {\n            uint index = 0;\n            for (uint n = matches.length; n > 0; n--) {\n                if (matches[n-1].outcome == MatchOutcome.Pending) \n                    output[index++] = matches[n-1].id;\n            }\n        } \n\n        return output; \n    }\n\n    \n    function getAllMatches() public view returns (bytes32[] memory) {\n        bytes32[] memory output = new bytes32[](matches.length); \n\n        //get all ids \n        if (matches.length > 0) {\n            uint index = 0;\n            for (uint n = matches.length; n > 0; n--) {\n                output[index++] = matches[n-1].id;\n            }\n        }\n        \n        return output; \n    }\n\n    \n    function getMatch(bytes32 _matchId) public view returns (\n        bytes32 id,\n        string memory name, \n        string memory participants,\n        uint8 participantCount,\n        uint date, \n        MatchOutcome outcome, \n        int8 winner) {\n        \n        //get the match \n        if (matchExists(_matchId)) {\n            Match storage theMatch = matches[_getMatchIndex(_matchId)];\n            return (theMatch.id, theMatch.name, theMatch.participants, theMatch.participantCount, theMatch.date, theMatch.outcome, theMatch.winner); \n        }\n        else {\n            return (_matchId, \"\", \"\", 0, 0, MatchOutcome.Pending, -1); \n        }\n    }\n\n    \n    function getMostRecentMatch(bool _pending) public view returns (\n        bytes32 id,\n        string memory name, \n        string memory participants,\n        uint8 participantCount,\n        uint date, \n        MatchOutcome outcome, \n        int8 winner) {\n\n        bytes32 matchId = 0; \n        bytes32[] memory ids;\n\n        if (_pending) {\n            ids = getPendingMatches(); \n        } else {\n            ids = getAllMatches();\n        }\n        if (ids.length > 0) {\n            matchId = ids[0]; \n        }\n        \n        //by default, return a null match\n        return getMatch(matchId); \n    }\n\n    function testConnection() public pure returns (bool) {\n        return true; \n    }\n\n    function getAddress() public view returns (address) {\n        return this.getAddress();\n    }\n\n    function addTestData() external onlyOwner {\n        addMatch(\"Pacquiao vs. MayWeather\", \"Pacquiao|Mayweather\", 2, DateLib.DateTime(2018, 8, 13, 0, 0, 0, 0, 0).toUnixTimestamp());\n        addMatch(\"Macquiao vs. Payweather\", \"Macquiao|Payweather\", 2, DateLib.DateTime(2018, 8, 15, 0, 0, 0, 0, 0).toUnixTimestamp());\n        addMatch(\"Pacweather vs. Macarthur\", \"Pacweather|Macarthur\", 2, DateLib.DateTime(2018, 9, 3, 0, 0, 0, 0, 0).toUnixTimestamp());\n        addMatch(\"Macarthur vs. Truman\", \"Macarthur|Truman\", 2, DateLib.DateTime(2018, 9, 3, 0, 0, 0, 0, 0).toUnixTimestamp());\n        addMatch(\"Macaque vs. Pregunto\", \"Macaque|Pregunto\", 2, DateLib.DateTime(2018, 9, 21, 0, 0, 0, 0, 0).toUnixTimestamp());\n        addMatch(\"Farsworth vs. Wernstrom\", \"Farsworth|Wernstrom\", 2, DateLib.DateTime(2018, 9, 29, 0, 0, 0, 0, 0).toUnixTimestamp());\n        addMatch(\"Fortinbras vs. Hamlet\", \"Fortinbras|Hamlet\", 2, DateLib.DateTime(2018, 10, 10, 0, 0, 0, 0, 0).toUnixTimestamp());\n        addMatch(\"Foolicle vs. Pretendo\", \"Foolicle|Pretendo\", 2, DateLib.DateTime(2018, 11, 11, 0, 0, 0, 0, 0).toUnixTimestamp());\n        addMatch(\"Parthian vs. Scythian\", \"Parthian|Scythian\", 2, DateLib.DateTime(2018, 11, 12, 0, 0, 0, 0, 0).toUnixTimestamp());\n    }\n}\n",
  "sourcePath": "/Users/aoikurokawa/Documents/Blockchain/Ethereum/oracle_example/oracle/contracts/BoxingOracle.sol",
  "compiler": {
    "name": "solc",
    "version": "0.5.16+commit.9c3226ce.Emscripten.clang"
  },
  "schemaVersion": "3.3.4",
  "updatedAt": "2021-02-26T10:03:04.350Z",
  "networkType": "ethereum",
  "devdoc": {
    "author": "John R. Kosinski",
    "methods": {
      "transferOwnership(address)": {
        "details": "Allows the current owner to transfer control of the contract to a newOwner.",
        "params": {
          "newOwner": "The address to transfer ownership to."
        }
      }
    },
    "title": "BoxingOracle"
  },
  "userdoc": {
    "methods": {},
    "notice": "Collects and provides information on boxing matches and their outcomes "
  }
}